:100000000C945A000C9477000C9477000C947700B1
:100010000C9477000C9477000C9477000C94770084
:100020000C9477000C9477000C9477000C94770074
:100030000C9477000C9428010C9477000C947700B2
:100040000C9477000C9477000C9477000C94770054
:100050000C9477000C9477000C9477000C94770044
:100060000C9477000C9477000C9477000C94770034
:100070000C9477000C9477000C9477000C94770024
:100080000C9477000C9477000C9477000C94770014
:100090000C9477000C9477000C9477000C94770004
:1000A0000C9477000C9477000C9477000C947700F4
:1000B0000C94770011241FBECFEFD8E0DEBFCDBF78
:1000C00011E0A0E0B1E0E0ECF2E002C005900D929A
:1000D000AE30B107D9F721E0AEE0B1E001C01D922A
:1000E000AB31B207E1F70E94AD000C945E010C94B5
:1000F00000000E94D0000895809113019091140196
:1001000001969093140180931301809113019091B3
:1001100014010E941E0180910E0190910F01019621
:1001200090930F0180930E0108950E9413018FE3B5
:1001300090E00E941E0180E090E00E9419017894F6
:100140008CE790E00E94230180910E0190910F01B5
:10015000883E9D4FC8F381E008950E9479000E9477
:10016000950080E090E00895E4E6F0E080818E7FE5
:10017000808310927C0081E880937A0010927B004B
:1001800080E00895219A2998229A2A980E940001D5
:10019000089550985898519A59980E943A01089594
:1001A0008DE3809365008FEF8093640094B114B861
:1001B00095B185B997B1907897B998B19F6798B97B
:1001C0009AB11AB89BB18BB98DB1807F8DB98EB1C0
:1001D0008F608EB940E060E881E690E00E94F9000F
:1001E00013BE15BE0E94B4000E94C2000E94C90046
:1001F00008952FB7F894FC01608340832FBF0895C2
:10020000E4E6F0E08081877F808383E28093800052
:1002100081E1809381008FE390E090938900809347
:10022000880080E00895E0E8F0E0808180628083CB
:1002300008959093850080938400089590938B0097
:1002400080938A000895909312018093110108957C
:100250001F920F920FB60F9211248F9316BA8091AE
:1002600010018F5F809310018F910F900FBE0F9040
:100270001F901895E4E6F0E080818D7F80831092D6
:10028000C50083E38093C4001092C00088E9809386
:10029000C10080E091E0909318018093170180E005
:1002A0000895E0ECF0E0908195FFFDCF8093C600CB
:1002B00008950E94510180E090E00895F894FFCFE6
:0E02C0000000000200000000590100000000D4
:00000001FF
